{
  "_format": "hh-sol-artifact-1",
  "contractName": "ScoreBoard",
  "sourceName": "contracts/ScoreBoard.sol",
  "abi": [
    {
      "inputs": [],
      "stateMutability": "nonpayable",
      "type": "constructor"
    },
    {
      "anonymous": false,
      "inputs": [
        {
          "indexed": false,
          "internalType": "string",
          "name": "name",
          "type": "string"
        },
        {
          "indexed": true,
          "internalType": "address",
          "name": "player",
          "type": "address"
        },
        {
          "indexed": false,
          "internalType": "uint256",
          "name": "score",
          "type": "uint256"
        }
      ],
      "name": "ScoreRecorded",
      "type": "event"
    },
    {
      "inputs": [],
      "name": "getAllScores",
      "outputs": [
        {
          "components": [
            {
              "internalType": "string",
              "name": "name",
              "type": "string"
            },
            {
              "internalType": "address",
              "name": "player",
              "type": "address"
            },
            {
              "internalType": "uint256",
              "name": "score",
              "type": "uint256"
            }
          ],
          "internalType": "struct ScoreBoard.Score[]",
          "name": "",
          "type": "tuple[]"
        }
      ],
      "stateMutability": "view",
      "type": "function"
    },
    {
      "inputs": [],
      "name": "getScoreCount",
      "outputs": [
        {
          "internalType": "uint256",
          "name": "",
          "type": "uint256"
        }
      ],
      "stateMutability": "view",
      "type": "function"
    },
    {
      "inputs": [],
      "name": "owner",
      "outputs": [
        {
          "internalType": "address",
          "name": "",
          "type": "address"
        }
      ],
      "stateMutability": "view",
      "type": "function"
    },
    {
      "inputs": [
        {
          "internalType": "string",
          "name": "name",
          "type": "string"
        },
        {
          "internalType": "address",
          "name": "player",
          "type": "address"
        },
        {
          "internalType": "uint256",
          "name": "score",
          "type": "uint256"
        }
      ],
      "name": "recordScore",
      "outputs": [],
      "stateMutability": "nonpayable",
      "type": "function"
    },
    {
      "inputs": [
        {
          "internalType": "uint256",
          "name": "",
          "type": "uint256"
        }
      ],
      "name": "scores",
      "outputs": [
        {
          "internalType": "string",
          "name": "name",
          "type": "string"
        },
        {
          "internalType": "address",
          "name": "player",
          "type": "address"
        },
        {
          "internalType": "uint256",
          "name": "score",
          "type": "uint256"
        }
      ],
      "stateMutability": "view",
      "type": "function"
    }
  ],
  "bytecode": "0x608060405234801561001057600080fd5b5033600160006101000a81548173ffffffffffffffffffffffffffffffffffffffff021916908373ffffffffffffffffffffffffffffffffffffffff160217905550610dd9806100616000396000f3fe608060405234801561001057600080fd5b50600436106100575760003560e01c80632ee691a31461005c57806387d061961461008e5780638da5cb5b146100ac578063dfc9ff2e146100ca578063fdaeeb08146100e6575b600080fd5b6100766004803603810190610071919061059a565b610104565b604051610085939291906106a7565b60405180910390f35b6100966101e6565b6040516100a3919061085f565b60405180910390f35b6100b4610337565b6040516100c19190610881565b60405180910390f35b6100e460048036038101906100df919061092d565b61035d565b005b6100ee61054e565b6040516100fb91906109a1565b60405180910390f35b6000818154811061011457600080fd5b9060005260206000209060030201600091509050806000018054610137906109eb565b80601f0160208091040260200160405190810160405280929190818152602001828054610163906109eb565b80156101b05780601f10610185576101008083540402835291602001916101b0565b820191906000526020600020905b81548152906001019060200180831161019357829003601f168201915b5050505050908060010160009054906101000a900473ffffffffffffffffffffffffffffffffffffffff16908060020154905083565b60606000805480602002602001604051908101604052809291908181526020016000905b8282101561032e578382906000526020600020906003020160405180606001604052908160008201805461023d906109eb565b80601f0160208091040260200160405190810160405280929190818152602001828054610269906109eb565b80156102b65780601f1061028b576101008083540402835291602001916102b6565b820191906000526020600020905b81548152906001019060200180831161029957829003601f168201915b505050505081526020016001820160009054906101000a900473ffffffffffffffffffffffffffffffffffffffff1673ffffffffffffffffffffffffffffffffffffffff1673ffffffffffffffffffffffffffffffffffffffff1681526020016002820154815250508152602001906001019061020a565b50505050905090565b600160009054906101000a900473ffffffffffffffffffffffffffffffffffffffff1681565b600160009054906101000a900473ffffffffffffffffffffffffffffffffffffffff1673ffffffffffffffffffffffffffffffffffffffff163373ffffffffffffffffffffffffffffffffffffffff16146103ed576040517f08c379a00000000000000000000000000000000000000000000000000000000081526004016103e490610a68565b60405180910390fd5b6000604051806060016040528086868080601f016020809104026020016040519081016040528093929190818152602001838380828437600081840152601f19601f8201169050808301925050505050505081526020018473ffffffffffffffffffffffffffffffffffffffff16815260200183815250908060018154018082558091505060019003906000526020600020906003020160009091909190915060008201518160000190816104a29190610c63565b5060208201518160010160006101000a81548173ffffffffffffffffffffffffffffffffffffffff021916908373ffffffffffffffffffffffffffffffffffffffff1602179055506040820151816002015550508173ffffffffffffffffffffffffffffffffffffffff167f10b0abbd50b1249f2eae6be39836a5ad7c7b13a388fc359326ed033841c3114785858460405161054093929190610d71565b60405180910390a250505050565b60008080549050905090565b600080fd5b600080fd5b6000819050919050565b61057781610564565b811461058257600080fd5b50565b6000813590506105948161056e565b92915050565b6000602082840312156105b0576105af61055a565b5b60006105be84828501610585565b91505092915050565b600081519050919050565b600082825260208201905092915050565b60005b838110156106015780820151818401526020810190506105e6565b60008484015250505050565b6000601f19601f8301169050919050565b6000610629826105c7565b61063381856105d2565b93506106438185602086016105e3565b61064c8161060d565b840191505092915050565b600073ffffffffffffffffffffffffffffffffffffffff82169050919050565b600061068282610657565b9050919050565b61069281610677565b82525050565b6106a181610564565b82525050565b600060608201905081810360008301526106c1818661061e565b90506106d06020830185610689565b6106dd6040830184610698565b949350505050565b600081519050919050565b600082825260208201905092915050565b6000819050602082019050919050565b600082825260208201905092915050565b600061072d826105c7565b6107378185610711565b93506107478185602086016105e3565b6107508161060d565b840191505092915050565b61076481610677565b82525050565b61077381610564565b82525050565b600060608301600083015184820360008601526107968282610722565b91505060208301516107ab602086018261075b565b5060408301516107be604086018261076a565b508091505092915050565b60006107d58383610779565b905092915050565b6000602082019050919050565b60006107f5826106e5565b6107ff81856106f0565b93508360208202850161081185610701565b8060005b8581101561084d578484038952815161082e85826107c9565b9450610839836107dd565b925060208a01995050600181019050610815565b50829750879550505050505092915050565b6000602082019050818103600083015261087981846107ea565b905092915050565b60006020820190506108966000830184610689565b92915050565b600080fd5b600080fd5b600080fd5b60008083601f8401126108c1576108c061089c565b5b8235905067ffffffffffffffff8111156108de576108dd6108a1565b5b6020830191508360018202830111156108fa576108f96108a6565b5b9250929050565b61090a81610677565b811461091557600080fd5b50565b60008135905061092781610901565b92915050565b600080600080606085870312156109475761094661055a565b5b600085013567ffffffffffffffff8111156109655761096461055f565b5b610971878288016108ab565b9450945050602061098487828801610918565b925050604061099587828801610585565b91505092959194509250565b60006020820190506109b66000830184610698565b92915050565b7f4e487b7100000000000000000000000000000000000000000000000000000000600052602260045260246000fd5b60006002820490506001821680610a0357607f821691505b602082108103610a1657610a156109bc565b5b50919050565b7f4f6e6c79206261636b656e642063616e20707573682073636f72657300000000600082015250565b6000610a52601c836105d2565b9150610a5d82610a1c565b602082019050919050565b60006020820190508181036000830152610a8181610a45565b9050919050565b7f4e487b7100000000000000000000000000000000000000000000000000000000600052604160045260246000fd5b60008190508160005260206000209050919050565b60006020601f8301049050919050565b600082821b905092915050565b600060088302610b197fffffffffffffffffffffffffffffffffffffffffffffffffffffffffffffffff82610adc565b610b238683610adc565b95508019841693508086168417925050509392505050565b6000819050919050565b6000610b60610b5b610b5684610564565b610b3b565b610564565b9050919050565b6000819050919050565b610b7a83610b45565b610b8e610b8682610b67565b848454610ae9565b825550505050565b600090565b610ba3610b96565b610bae818484610b71565b505050565b5b81811015610bd257610bc7600082610b9b565b600181019050610bb4565b5050565b601f821115610c1757610be881610ab7565b610bf184610acc565b81016020851015610c00578190505b610c14610c0c85610acc565b830182610bb3565b50505b505050565b600082821c905092915050565b6000610c3a60001984600802610c1c565b1980831691505092915050565b6000610c538383610c29565b9150826002028217905092915050565b610c6c826105c7565b67ffffffffffffffff811115610c8557610c84610a88565b5b610c8f82546109eb565b610c9a828285610bd6565b600060209050601f831160018114610ccd5760008415610cbb578287015190505b610cc58582610c47565b865550610d2d565b601f198416610cdb86610ab7565b60005b82811015610d0357848901518255600182019150602085019450602081019050610cde565b86831015610d205784890151610d1c601f891682610c29565b8355505b6001600288020188555050505b505050505050565b82818337600083830152505050565b6000610d5083856105d2565b9350610d5d838584610d35565b610d668361060d565b840190509392505050565b60006040820190508181036000830152610d8c818587610d44565b9050610d9b6020830184610698565b94935050505056fea2646970667358221220b8f258c51c3e76c74368b3b75beea9e6ba9d0251229ad98af79abd89eb8ad43964736f6c63430008140033",
  "linkReferences": {},
  "deployedLinkReferences": {}
}